{
  "contractName": "CustomerRole",
  "abi": [
    {
      "inputs": [
        {
          "name": "name",
          "type": "string"
        }
      ],
      "payable": false,
      "stateMutability": "nonpayable",
      "type": "constructor"
    },
    {
      "anonymous": false,
      "inputs": [
        {
          "indexed": true,
          "name": "account",
          "type": "address"
        },
        {
          "indexed": false,
          "name": "name",
          "type": "string"
        }
      ],
      "name": "CustomerAdded",
      "type": "event"
    },
    {
      "anonymous": false,
      "inputs": [
        {
          "indexed": true,
          "name": "account",
          "type": "address"
        },
        {
          "indexed": false,
          "name": "name",
          "type": "string"
        }
      ],
      "name": "CustomerRemoved",
      "type": "event"
    },
    {
      "constant": true,
      "inputs": [
        {
          "name": "account",
          "type": "address"
        }
      ],
      "name": "getNameCustomer",
      "outputs": [
        {
          "name": "",
          "type": "string"
        }
      ],
      "payable": false,
      "stateMutability": "view",
      "type": "function"
    },
    {
      "constant": true,
      "inputs": [
        {
          "name": "account",
          "type": "address"
        }
      ],
      "name": "isCustomer",
      "outputs": [
        {
          "name": "",
          "type": "bool"
        }
      ],
      "payable": false,
      "stateMutability": "view",
      "type": "function"
    },
    {
      "constant": false,
      "inputs": [
        {
          "name": "account",
          "type": "address"
        },
        {
          "name": "name",
          "type": "string"
        }
      ],
      "name": "addCustomer",
      "outputs": [],
      "payable": false,
      "stateMutability": "nonpayable",
      "type": "function"
    },
    {
      "constant": false,
      "inputs": [],
      "name": "renounceCustomer",
      "outputs": [],
      "payable": false,
      "stateMutability": "nonpayable",
      "type": "function"
    }
  ],
  "bytecode": "0x608060405234801561001057600080fd5b506040516109283803806109288339810180604052602081101561003357600080fd5b81019080805164010000000081111561004b57600080fd5b8201602081018481111561005e57600080fd5b815164010000000081118282018710171561007857600080fd5b5050929190505050610090338261009660201b60201c565b50610296565b6100b08282600061015760201b6104e4179092919060201c565b816001600160a01b03167f2ca4013d205e98e6d17064d457e517852f176874b780bda762e655e9ed5eaa02826040518080602001828103825283818151815260200191508051906020019080838360005b83811015610119578181015183820152602001610101565b50505050905090810190601f1680156101465780820380516001836020036101000a031916815260200191505b509250505060405180910390a25050565b6001600160a01b03821661016a57600080fd5b61017a83836101c660201b60201c565b1561018457600080fd5b6001600160a01b038216600090815260208481526040808320805460ff191660019081179091558601825290912082516101c0928401906101fb565b50505050565b60006001600160a01b0382166101db57600080fd5b506001600160a01b03166000908152602091909152604090205460ff1690565b828054600181600116156101000203166002900490600052602060002090601f016020900481019282601f1061023c57805160ff1916838001178555610269565b82800160010185558215610269579182015b8281111561026957825182559160200191906001019061024e565b50610275929150610279565b5090565b61029391905b80821115610275576000815560010161027f565b90565b610683806102a56000396000f3fe608060405234801561001057600080fd5b506004361061004c5760003560e01c806328fd5e831461005157806340b151521461008b57806388bc815014610126578063ac98e6db146101de575b600080fd5b6100776004803603602081101561006757600080fd5b50356001600160a01b03166101e6565b604080519115158252519081900360200190f35b6100b1600480360360208110156100a157600080fd5b50356001600160a01b03166101fe565b6040805160208082528351818301528351919283929083019185019080838360005b838110156100eb5781810151838201526020016100d3565b50505050905090810190601f1680156101185780820380516001836020036101000a031916815260200191505b509250505060405180910390f35b6101dc6004803603604081101561013c57600080fd5b6001600160a01b03823516919081019060408101602082013564010000000081111561016757600080fd5b82018360208201111561017957600080fd5b8035906020019184600183028401116401000000008311171561019b57600080fd5b91908080601f016020809104026020016040519081016040528093929190818152602001838380828437600092019190915250929550610211945050505050565b005b6101dc610266565b60006101f8818363ffffffff61027116565b92915050565b60606101f860008363ffffffff6102a616565b61021a336101e6565b61025857604051600160e51b62461bcd0281526004018080602001828103825260278152602001806106316027913960400191505060405180910390fd5b6102628282610354565b5050565b61026f3361040d565b565b60006001600160a01b03821661028657600080fd5b506001600160a01b03166000908152602091909152604090205460ff1690565b6001600160a01b03811660009081526001838101602090815260409283902080548451600294821615610100026000190190911693909304601f810183900483028401830190945283835260609390918301828280156103475780601f1061031c57610100808354040283529160200191610347565b820191906000526020600020905b81548152906001019060200180831161032a57829003601f168201915b5050505050905092915050565b6103666000838363ffffffff6104e416565b816001600160a01b03167f2ca4013d205e98e6d17064d457e517852f176874b780bda762e655e9ed5eaa02826040518080602001828103825283818151815260200191508051906020019080838360005b838110156103cf5781810151838201526020016103b7565b50505050905090810190601f1680156103fc5780820380516001836020036101000a031916815260200191505b509250505060405180910390a25050565b61041e60008263ffffffff61054d16565b6001600160a01b03811660008181526001602081815260409283902083518281528154600294811615610100026000190116939093049183018290527f7ac3aec2edbc7275678a3a896abca4167dc04474328732fdfde9ffc8a7a8fb65939092918291820190849080156104d35780601f106104a8576101008083540402835291602001916104d3565b820191906000526020600020905b8154815290600101906020018083116104b657829003601f168201915b50509250505060405180910390a250565b6001600160a01b0382166104f757600080fd5b6105018383610271565b1561050b57600080fd5b6001600160a01b038216600090815260208481526040808320805460ff1916600190811790915586018252909120825161054792840190610595565b50505050565b6001600160a01b03811661056057600080fd5b61056a8282610271565b61057357600080fd5b6001600160a01b0316600090815260209190915260409020805460ff19169055565b828054600181600116156101000203166002900490600052602060002090601f016020900481019282601f106105d657805160ff1916838001178555610603565b82800160010185558215610603579182015b828111156106035782518255916020019190600101906105e8565b5061060f929150610613565b5090565b61062d91905b8082111561060f5760008155600101610619565b9056fe4f6e6c7920437573746f6d6572732063616e20706572666f726d207468697320616374696f6e21a165627a7a72305820824ce4aec966927d3aea05e4a25e7fa948568da4587d1fc20ac9c713ebf3cf040029",
  "source": "pragma solidity ^0.5.0;\n\n// Import the library 'Roles'\nimport \"./Roles.sol\";\n\n\n// Define a contract 'CustomerRole' to manage this role - add, remove, check\ncontract CustomerRole {\n    using Roles for Roles.Role;\n    // Define 2 events, one for Adding, and other for Removing\n    event CustomerAdded(address indexed account, string name);\n    event CustomerRemoved(address indexed account, string name);\n\n    // Define a struct 'retailers' by inheriting from 'Roles' library, struct Role\n    Roles.Role private customers;\n\n    // In the constructor make the address that deploys this contract the 1st retailer\n    constructor(string memory name) public {\n        _addCustomer(msg.sender, name);\n    }\n\n    // Define a modifier that checks to see if msg.sender has the appropriate role\n    modifier onlyCustomer() {\n        require(isCustomer(msg.sender), \"Only Customers can perform this action!\");\n        _;\n    }\n\n    function getNameCustomer(address account) public view returns (string memory) {\n        return customers.getName(account);\n    }\n\n    // Define a function 'isCustomer' to check this role\n    function isCustomer(address account) public view returns (bool) {\n        return customers.has(account);\n    }\n\n    // Define a function 'addCustomer' that adds this role\n    function addCustomer(address account, string memory name) public onlyCustomer {\n        _addCustomer(account, name);\n    }\n\n    // Define a function 'renounceCustomer' to renounce this role\n    function renounceCustomer() public {\n        _removeCustomer(msg.sender);\n    }\n\n    // Define an internal function '_addCustomer' to add this role, called by 'addCustomer'\n    function _addCustomer(address account, string memory name) internal {\n        customers.add(account, name);\n        emit CustomerAdded(account, name);\n    }\n\n    // Define an internal function '_removeCustomer' to remove this role, called by 'removeCustomer'\n    function _removeCustomer(address account) internal {\n        customers.remove(account);\n        emit CustomerRemoved(account, customers.name[account]);\n    }\n}\n",
  "compiler": {
    "name": "solc",
    "version": "0.5.8+commit.23d335f2.Emscripten.clang"
  },
  "schemaVersion": "3.0.16",
  "updatedAt": "2020-05-14T20:07:23.914Z",
  "devdoc": {
    "methods": {}
  },
  "userdoc": {
    "methods": {}
  }
}