{
  "contractName": "SupplyChain",
  "abi": [
    {
      "constant": true,
      "inputs": [],
      "name": "msn",
      "outputs": [
        {
          "name": "",
          "type": "uint256"
        }
      ],
      "payable": false,
      "stateMutability": "view",
      "type": "function"
    },
    {
      "constant": false,
      "inputs": [
        {
          "name": "account",
          "type": "address"
        },
        {
          "name": "name",
          "type": "string"
        }
      ],
      "name": "addTransporter",
      "outputs": [],
      "payable": false,
      "stateMutability": "nonpayable",
      "type": "function"
    },
    {
      "constant": true,
      "inputs": [
        {
          "name": "account",
          "type": "address"
        }
      ],
      "name": "isManufacturer",
      "outputs": [
        {
          "name": "",
          "type": "bool"
        }
      ],
      "payable": false,
      "stateMutability": "view",
      "type": "function"
    },
    {
      "constant": false,
      "inputs": [
        {
          "name": "account",
          "type": "address"
        },
        {
          "name": "name",
          "type": "string"
        }
      ],
      "name": "addSupplier",
      "outputs": [],
      "payable": false,
      "stateMutability": "nonpayable",
      "type": "function"
    },
    {
      "constant": true,
      "inputs": [
        {
          "name": "account",
          "type": "address"
        }
      ],
      "name": "isCustomer",
      "outputs": [
        {
          "name": "",
          "type": "bool"
        }
      ],
      "payable": false,
      "stateMutability": "view",
      "type": "function"
    },
    {
      "constant": true,
      "inputs": [],
      "name": "equipmentPrice",
      "outputs": [
        {
          "name": "",
          "type": "uint256"
        }
      ],
      "payable": false,
      "stateMutability": "view",
      "type": "function"
    },
    {
      "constant": true,
      "inputs": [
        {
          "name": "account",
          "type": "address"
        }
      ],
      "name": "isTransporter",
      "outputs": [
        {
          "name": "",
          "type": "bool"
        }
      ],
      "payable": false,
      "stateMutability": "view",
      "type": "function"
    },
    {
      "constant": false,
      "inputs": [],
      "name": "renounceTransporter",
      "outputs": [],
      "payable": false,
      "stateMutability": "nonpayable",
      "type": "function"
    },
    {
      "constant": true,
      "inputs": [
        {
          "name": "account",
          "type": "address"
        }
      ],
      "name": "getNameTransporter",
      "outputs": [
        {
          "name": "",
          "type": "string"
        }
      ],
      "payable": false,
      "stateMutability": "view",
      "type": "function"
    },
    {
      "constant": true,
      "inputs": [
        {
          "name": "account",
          "type": "address"
        }
      ],
      "name": "getNameCustomer",
      "outputs": [
        {
          "name": "",
          "type": "string"
        }
      ],
      "payable": false,
      "stateMutability": "view",
      "type": "function"
    },
    {
      "constant": true,
      "inputs": [
        {
          "name": "account",
          "type": "address"
        }
      ],
      "name": "isSupplier",
      "outputs": [
        {
          "name": "",
          "type": "bool"
        }
      ],
      "payable": false,
      "stateMutability": "view",
      "type": "function"
    },
    {
      "constant": true,
      "inputs": [
        {
          "name": "account",
          "type": "address"
        }
      ],
      "name": "getNameManufacturer",
      "outputs": [
        {
          "name": "",
          "type": "string"
        }
      ],
      "payable": false,
      "stateMutability": "view",
      "type": "function"
    },
    {
      "constant": true,
      "inputs": [
        {
          "name": "account",
          "type": "address"
        }
      ],
      "name": "getNameSupplier",
      "outputs": [
        {
          "name": "",
          "type": "string"
        }
      ],
      "payable": false,
      "stateMutability": "view",
      "type": "function"
    },
    {
      "constant": true,
      "inputs": [],
      "name": "aircraftPrice",
      "outputs": [
        {
          "name": "",
          "type": "uint256"
        }
      ],
      "payable": false,
      "stateMutability": "view",
      "type": "function"
    },
    {
      "constant": false,
      "inputs": [
        {
          "name": "account",
          "type": "address"
        },
        {
          "name": "name",
          "type": "string"
        }
      ],
      "name": "addCustomer",
      "outputs": [],
      "payable": false,
      "stateMutability": "nonpayable",
      "type": "function"
    },
    {
      "constant": false,
      "inputs": [
        {
          "name": "account",
          "type": "address"
        },
        {
          "name": "name",
          "type": "string"
        }
      ],
      "name": "addManufacturer",
      "outputs": [],
      "payable": false,
      "stateMutability": "nonpayable",
      "type": "function"
    },
    {
      "constant": false,
      "inputs": [],
      "name": "renounceSupplier",
      "outputs": [],
      "payable": false,
      "stateMutability": "nonpayable",
      "type": "function"
    },
    {
      "constant": false,
      "inputs": [],
      "name": "renounceCustomer",
      "outputs": [],
      "payable": false,
      "stateMutability": "nonpayable",
      "type": "function"
    },
    {
      "constant": true,
      "inputs": [],
      "name": "transportFee",
      "outputs": [
        {
          "name": "",
          "type": "uint256"
        }
      ],
      "payable": false,
      "stateMutability": "view",
      "type": "function"
    },
    {
      "constant": false,
      "inputs": [],
      "name": "renounceManufacturer",
      "outputs": [],
      "payable": false,
      "stateMutability": "nonpayable",
      "type": "function"
    },
    {
      "constant": true,
      "inputs": [
        {
          "name": "",
          "type": "address"
        }
      ],
      "name": "pendingWithdrawals",
      "outputs": [
        {
          "name": "",
          "type": "uint256"
        }
      ],
      "payable": false,
      "stateMutability": "view",
      "type": "function"
    },
    {
      "inputs": [],
      "payable": true,
      "stateMutability": "payable",
      "type": "constructor"
    },
    {
      "anonymous": false,
      "inputs": [
        {
          "indexed": false,
          "name": "asset",
          "type": "string"
        },
        {
          "indexed": false,
          "name": "id",
          "type": "uint256"
        }
      ],
      "name": "Ordered",
      "type": "event"
    },
    {
      "anonymous": false,
      "inputs": [
        {
          "indexed": false,
          "name": "asset",
          "type": "string"
        },
        {
          "indexed": false,
          "name": "id",
          "type": "uint256"
        }
      ],
      "name": "Assembled",
      "type": "event"
    },
    {
      "anonymous": false,
      "inputs": [
        {
          "indexed": false,
          "name": "id",
          "type": "uint256"
        }
      ],
      "name": "Packed",
      "type": "event"
    },
    {
      "anonymous": false,
      "inputs": [
        {
          "indexed": false,
          "name": "id",
          "type": "uint256"
        }
      ],
      "name": "InTransit",
      "type": "event"
    },
    {
      "anonymous": false,
      "inputs": [
        {
          "indexed": false,
          "name": "asset",
          "type": "string"
        },
        {
          "indexed": false,
          "name": "id",
          "type": "uint256"
        }
      ],
      "name": "Received",
      "type": "event"
    },
    {
      "anonymous": false,
      "inputs": [
        {
          "indexed": false,
          "name": "asset",
          "type": "string"
        },
        {
          "indexed": false,
          "name": "id",
          "type": "uint256"
        }
      ],
      "name": "Integrated",
      "type": "event"
    },
    {
      "anonymous": false,
      "inputs": [
        {
          "indexed": false,
          "name": "msn",
          "type": "uint256"
        }
      ],
      "name": "StructureReady",
      "type": "event"
    },
    {
      "anonymous": false,
      "inputs": [
        {
          "indexed": true,
          "name": "account",
          "type": "address"
        },
        {
          "indexed": false,
          "name": "name",
          "type": "string"
        }
      ],
      "name": "TransporterAdded",
      "type": "event"
    },
    {
      "anonymous": false,
      "inputs": [
        {
          "indexed": true,
          "name": "account",
          "type": "address"
        },
        {
          "indexed": false,
          "name": "name",
          "type": "string"
        }
      ],
      "name": "TransporterRemoved",
      "type": "event"
    },
    {
      "anonymous": false,
      "inputs": [
        {
          "indexed": true,
          "name": "account",
          "type": "address"
        },
        {
          "indexed": false,
          "name": "name",
          "type": "string"
        }
      ],
      "name": "CustomerAdded",
      "type": "event"
    },
    {
      "anonymous": false,
      "inputs": [
        {
          "indexed": true,
          "name": "account",
          "type": "address"
        },
        {
          "indexed": false,
          "name": "name",
          "type": "string"
        }
      ],
      "name": "CustomerRemoved",
      "type": "event"
    },
    {
      "anonymous": false,
      "inputs": [
        {
          "indexed": true,
          "name": "account",
          "type": "address"
        },
        {
          "indexed": false,
          "name": "name",
          "type": "string"
        }
      ],
      "name": "ManufacturerAdded",
      "type": "event"
    },
    {
      "anonymous": false,
      "inputs": [
        {
          "indexed": true,
          "name": "account",
          "type": "address"
        },
        {
          "indexed": false,
          "name": "name",
          "type": "string"
        }
      ],
      "name": "ManufacturerRemoved",
      "type": "event"
    },
    {
      "anonymous": false,
      "inputs": [
        {
          "indexed": true,
          "name": "account",
          "type": "address"
        },
        {
          "indexed": false,
          "name": "name",
          "type": "string"
        }
      ],
      "name": "SupplierAdded",
      "type": "event"
    },
    {
      "anonymous": false,
      "inputs": [
        {
          "indexed": true,
          "name": "account",
          "type": "address"
        },
        {
          "indexed": false,
          "name": "name",
          "type": "string"
        }
      ],
      "name": "SupplierRemoved",
      "type": "event"
    },
    {
      "constant": false,
      "inputs": [],
      "name": "kill",
      "outputs": [],
      "payable": false,
      "stateMutability": "nonpayable",
      "type": "function"
    },
    {
      "constant": false,
      "inputs": [],
      "name": "withdraw",
      "outputs": [],
      "payable": false,
      "stateMutability": "nonpayable",
      "type": "function"
    },
    {
      "constant": false,
      "inputs": [
        {
          "name": "_equipmentID",
          "type": "uint256"
        },
        {
          "name": "_manufacturerID",
          "type": "address"
        }
      ],
      "name": "orderAircraft",
      "outputs": [],
      "payable": true,
      "stateMutability": "payable",
      "type": "function"
    },
    {
      "constant": false,
      "inputs": [
        {
          "name": "_equipmentID",
          "type": "uint256"
        },
        {
          "name": "_supplierID",
          "type": "address"
        },
        {
          "name": "_msn",
          "type": "uint256"
        }
      ],
      "name": "orderEquipment",
      "outputs": [],
      "payable": true,
      "stateMutability": "payable",
      "type": "function"
    },
    {
      "constant": false,
      "inputs": [
        {
          "name": "_componentID",
          "type": "uint256"
        },
        {
          "name": "_originManufacturerName",
          "type": "string"
        },
        {
          "name": "_originPlant",
          "type": "string"
        },
        {
          "name": "_equipmentID",
          "type": "uint256"
        }
      ],
      "name": "receiveComponent",
      "outputs": [],
      "payable": false,
      "stateMutability": "nonpayable",
      "type": "function"
    },
    {
      "constant": false,
      "inputs": [
        {
          "name": "_componentID",
          "type": "uint256"
        },
        {
          "name": "_originPlant",
          "type": "string"
        },
        {
          "name": "_equipmentNotes",
          "type": "string"
        }
      ],
      "name": "processComponent",
      "outputs": [],
      "payable": false,
      "stateMutability": "nonpayable",
      "type": "function"
    },
    {
      "constant": false,
      "inputs": [
        {
          "name": "_msn",
          "type": "uint256"
        },
        {
          "name": "_originPlant",
          "type": "string"
        },
        {
          "name": "_aircraftNotes",
          "type": "string"
        }
      ],
      "name": "prepareStructure",
      "outputs": [],
      "payable": false,
      "stateMutability": "nonpayable",
      "type": "function"
    },
    {
      "constant": false,
      "inputs": [
        {
          "name": "_equipmentID",
          "type": "uint256"
        },
        {
          "name": "_transporterID",
          "type": "address"
        }
      ],
      "name": "packEquipment",
      "outputs": [],
      "payable": true,
      "stateMutability": "payable",
      "type": "function"
    },
    {
      "constant": false,
      "inputs": [
        {
          "name": "_equipmentID",
          "type": "uint256"
        }
      ],
      "name": "transportEquipment",
      "outputs": [],
      "payable": false,
      "stateMutability": "nonpayable",
      "type": "function"
    },
    {
      "constant": false,
      "inputs": [
        {
          "name": "_equipmentID",
          "type": "uint256"
        }
      ],
      "name": "receiveEquipment",
      "outputs": [],
      "payable": true,
      "stateMutability": "payable",
      "type": "function"
    },
    {
      "constant": false,
      "inputs": [
        {
          "name": "_equipmentID",
          "type": "uint256"
        },
        {
          "name": "_aircraftNotes",
          "type": "string"
        }
      ],
      "name": "processEquipment",
      "outputs": [],
      "payable": false,
      "stateMutability": "nonpayable",
      "type": "function"
    },
    {
      "constant": false,
      "inputs": [
        {
          "name": "_msn",
          "type": "uint256"
        }
      ],
      "name": "receiveAircraft",
      "outputs": [],
      "payable": true,
      "stateMutability": "payable",
      "type": "function"
    },
    {
      "constant": true,
      "inputs": [
        {
          "name": "_id",
          "type": "uint256"
        }
      ],
      "name": "fetchComponent",
      "outputs": [
        {
          "name": "componentUPC",
          "type": "uint256"
        },
        {
          "name": "equipmentID",
          "type": "uint256"
        },
        {
          "name": "state",
          "type": "uint8"
        },
        {
          "name": "originManufacturerName",
          "type": "string"
        },
        {
          "name": "originPlant",
          "type": "string"
        },
        {
          "name": "supplierID",
          "type": "address"
        }
      ],
      "payable": false,
      "stateMutability": "view",
      "type": "function"
    },
    {
      "constant": true,
      "inputs": [
        {
          "name": "_id",
          "type": "uint256"
        }
      ],
      "name": "fetchEquipment",
      "outputs": [
        {
          "name": "equipmentUPC",
          "type": "uint256"
        },
        {
          "name": "componentID",
          "type": "uint256"
        },
        {
          "name": "aircraftMsn",
          "type": "uint256"
        },
        {
          "name": "price",
          "type": "uint256"
        },
        {
          "name": "state",
          "type": "uint8"
        },
        {
          "name": "ownerID",
          "type": "address"
        },
        {
          "name": "supplierID",
          "type": "address"
        },
        {
          "name": "originPlant",
          "type": "string"
        },
        {
          "name": "equipmentNotes",
          "type": "string"
        },
        {
          "name": "transporterID",
          "type": "address"
        },
        {
          "name": "manufacturerID",
          "type": "address"
        }
      ],
      "payable": false,
      "stateMutability": "view",
      "type": "function"
    },
    {
      "constant": true,
      "inputs": [
        {
          "name": "_msn",
          "type": "uint256"
        }
      ],
      "name": "fetchAircraft",
      "outputs": [
        {
          "name": "aircraftMsn",
          "type": "uint256"
        },
        {
          "name": "equipmentID",
          "type": "uint256"
        },
        {
          "name": "price",
          "type": "uint256"
        },
        {
          "name": "state",
          "type": "uint8"
        },
        {
          "name": "ownerID",
          "type": "address"
        },
        {
          "name": "manufacturerID",
          "type": "address"
        },
        {
          "name": "originPlant",
          "type": "string"
        },
        {
          "name": "aircraftNotes",
          "type": "string"
        },
        {
          "name": "customerID",
          "type": "address"
        }
      ],
      "payable": false,
      "stateMutability": "view",
      "type": "function"
    }
  ],
  "bytecode": "0x6103e8600a55670de0b6b3a7640000600b556064600c55600560808181527f4f776e657200000000000000000000000000000000000000000000000000000060a081905260c083815260e0829052610100848152610120839052610180604052610140948552610160929092529192620000813382620000d8602090811b901c565b506200009433826200019f60201b60201c565b50620000a733826200022360201b60201c565b50620000ba3382620002a760201b60201c565b50600880546001600160a01b0319163317905560016009556200047b565b620000f5828260006200032b60201b62003993179092919060201c565b816001600160a01b03167f341e5ec549c32180adbca98effbeb9a39daa5471701e8b06b83698b5c22a6408826040518080602001828103825283818151815260200191508051906020019080838360005b838110156200016057818101518382015260200162000146565b50505050905090810190601f1680156200018e5780820380516001836020036101000a031916815260200191505b509250505060405180910390a25050565b620001bc828260026200032b60201b62003993179092919060201c565b60408051602080825283518183015283516001600160a01b038616937f1945d2c71d577291ed89748399bbcdcedbcb3611bdd9032a98b82b00e636f38893869390928392830191850190808383600083156200016057818101518382015260200162000146565b62000240828260046200032b60201b62003993179092919060201c565b60408051602080825283518183015283516001600160a01b038616937f2ca4013d205e98e6d17064d457e517852f176874b780bda762e655e9ed5eaa0293869390928392830191850190808383600083156200016057818101518382015260200162000146565b620002c4828260066200032b60201b62003993179092919060201c565b60408051602080825283518183015283516001600160a01b038616937fe75da5aa7388528834f74b340be0eeec627b6baf7bd9bb366b449200e9e90af193869390928392830191850190808383600083156200016057818101518382015260200162000146565b6001600160a01b0382166200033f57600080fd5b620003518383620003a060201b60201c565b156200035c57600080fd5b6001600160a01b038216600090815260208481526040808320805460ff191660019081179091558601825290912082516200039a92840190620003d6565b50505050565b60006001600160a01b038216620003b657600080fd5b506001600160a01b03166000908152602091909152604090205460ff1690565b828054600181600116156101000203166002900490600052602060002090601f016020900481019282601f106200041957805160ff191683800117855562000449565b8280016001018555821562000449579182015b82811115620004495782518255916020019190600101906200042c565b50620004579291506200045b565b5090565b6200047891905b8082111562000457576000815560010162000462565b90565b613dc0806200048b6000396000f3fe60806040526004361061020f5760003560e01c80635ef96edf1161011857806392024888116100a0578063b7dd3b1b1161006f578063b7dd3b1b14611041578063ca891df414611073578063d03776ce146111b2578063de07f34e146111c7578063f3f43703146111dc5761020f565b80639202488814610eb65780639315eda914610ecb5780639e16b8841461100f578063ac98e6db1461102c5761020f565b80637ba596a8116100e75780637ba596a814610a9d57806384ba5cb114610aba578063860c4e5b14610bf757806388bc815014610d345780638a8e0a2e14610df55761020f565b80635ef96edf14610820578063601ff8df146108535780636481f41d146109d05780636d6310de146109e55761020f565b80632b8109d51161019b5780633ccfd60b1161016a5780633ccfd60b1461075d57806340b151521461077257806341c0e1b5146107a557806346336542146107ba57806346cf6462146107ed5761020f565b80632b8109d5146106415780632ea17b2714610674578063318fd9a5146106895780633ae625b1146106b55761020f565b806317d4a491116101e257806317d4a491146103545780631c933a3e1461039b5780632298bc911461045c57806328fd5e83146105f95780632a65f5051461062c5761020f565b806302db927614610214578063096fd906146102405780630ba0fb3b14610267578063103d4c9214610293575b600080fd5b34801561022057600080fd5b5061023e6004803603602081101561023757600080fd5b503561120f565b005b34801561024c57600080fd5b50610255611348565b60408051918252519081900360200190f35b61023e6004803603604081101561027d57600080fd5b50803590602001356001600160a01b031661134e565b34801561029f57600080fd5b5061023e600480360360408110156102b657600080fd5b6001600160a01b038235169190810190604081016020820135600160201b8111156102e057600080fd5b8201836020820111156102f257600080fd5b803590602001918460018302840111600160201b8311171561031357600080fd5b91908080601f0160208091040260200160405190810160405280939291908181526020018383808284376000920191909152509295506115cb945050505050565b34801561036057600080fd5b506103876004803603602081101561037757600080fd5b50356001600160a01b0316611620565b604080519115158252519081900360200190f35b3480156103a757600080fd5b5061023e600480360360408110156103be57600080fd5b6001600160a01b038235169190810190604081016020820135600160201b8111156103e857600080fd5b8201836020820111156103fa57600080fd5b803590602001918460018302840111600160201b8311171561041b57600080fd5b91908080601f016020809104026020016040519081016040528093929190818152602001838380828437600092019190915250929550611639945050505050565b34801561046857600080fd5b506104866004803603602081101561047f57600080fd5b503561168a565b604051808c81526020018b81526020018a81526020018981526020018860078111156104ae57fe5b60ff168152602001876001600160a01b03166001600160a01b03168152602001866001600160a01b03166001600160a01b031681526020018060200180602001856001600160a01b03166001600160a01b03168152602001846001600160a01b03166001600160a01b03168152602001838103835287818151815260200191508051906020019080838360005b8381101561055357818101518382015260200161053b565b50505050905090810190601f1680156105805780820380516001836020036101000a031916815260200191505b50838103825286518152865160209182019188019080838360005b838110156105b357818101518382015260200161059b565b50505050905090810190601f1680156105e05780820380516001836020036101000a031916815260200191505b509d505050505050505050505050505060405180910390f35b34801561060557600080fd5b506103876004803603602081101561061c57600080fd5b50356001600160a01b0316611927565b34801561063857600080fd5b5061025561193a565b34801561064d57600080fd5b506103876004803603602081101561066457600080fd5b50356001600160a01b0316611940565b34801561068057600080fd5b5061023e611953565b61023e6004803603604081101561069f57600080fd5b50803590602001356001600160a01b031661195e565b3480156106c157600080fd5b506106e8600480360360208110156106d857600080fd5b50356001600160a01b0316611c5c565b6040805160208082528351818301528351919283929083019185019080838360005b8381101561072257818101518382015260200161070a565b50505050905090810190601f16801561074f5780820380516001836020036101000a031916815260200191505b509250505060405180910390f35b34801561076957600080fd5b5061023e611c6f565b34801561077e57600080fd5b506106e86004803603602081101561079557600080fd5b50356001600160a01b0316611cb0565b3480156107b157600080fd5b5061023e611cc3565b3480156107c657600080fd5b50610387600480360360208110156107dd57600080fd5b50356001600160a01b0316611ce4565b3480156107f957600080fd5b506106e86004803603602081101561081057600080fd5b50356001600160a01b0316611cf6565b34801561082c57600080fd5b506106e86004803603602081101561084357600080fd5b50356001600160a01b0316611d09565b34801561085f57600080fd5b5061087d6004803603602081101561087657600080fd5b5035611d1c565b604051808a815260200189815260200188815260200187600781111561089f57fe5b60ff168152602001866001600160a01b03166001600160a01b03168152602001856001600160a01b03166001600160a01b031681526020018060200180602001846001600160a01b03166001600160a01b03168152602001838103835286818151815260200191508051906020019080838360005b8381101561092c578181015183820152602001610914565b50505050905090810190601f1680156109595780820380516001836020036101000a031916815260200191505b50838103825285518152855160209182019187019080838360005b8381101561098c578181015183820152602001610974565b50505050905090810190601f1680156109b95780820380516001836020036101000a031916815260200191505b509b50505050505050505050505060405180910390f35b3480156109dc57600080fd5b50610255611f6b565b3480156109f157600080fd5b5061023e60048036036040811015610a0857600080fd5b81359190810190604081016020820135600160201b811115610a2957600080fd5b820183602082011115610a3b57600080fd5b803590602001918460018302840111600160201b83111715610a5c57600080fd5b91908080601f016020809104026020016040519081016040528093929190818152602001838380828437600092019190915250929550611f71945050505050565b61023e60048036036020811015610ab357600080fd5b503561233e565b348015610ac657600080fd5b5061023e60048036036060811015610add57600080fd5b81359190810190604081016020820135600160201b811115610afe57600080fd5b820183602082011115610b1057600080fd5b803590602001918460018302840111600160201b83111715610b3157600080fd5b91908080601f0160208091040260200160405190810160405280939291908181526020018383808284376000920191909152509295949360208101935035915050600160201b811115610b8357600080fd5b820183602082011115610b9557600080fd5b803590602001918460018302840111600160201b83111715610bb657600080fd5b91908080601f0160208091040260200160405190810160405280939291908181526020018383808284376000920191909152509295506125c1945050505050565b348015610c0357600080fd5b5061023e60048036036060811015610c1a57600080fd5b81359190810190604081016020820135600160201b811115610c3b57600080fd5b820183602082011115610c4d57600080fd5b803590602001918460018302840111600160201b83111715610c6e57600080fd5b91908080601f0160208091040260200160405190810160405280939291908181526020018383808284376000920191909152509295949360208101935035915050600160201b811115610cc057600080fd5b820183602082011115610cd257600080fd5b803590602001918460018302840111600160201b83111715610cf357600080fd5b91908080601f016020809104026020016040519081016040528093929190818152602001838380828437600092019190915250929550612706945050505050565b348015610d4057600080fd5b5061023e60048036036040811015610d5757600080fd5b6001600160a01b038235169190810190604081016020820135600160201b811115610d8157600080fd5b820183602082011115610d9357600080fd5b803590602001918460018302840111600160201b83111715610db457600080fd5b91908080601f0160208091040260200160405190810160405280939291908181526020018383808284376000920191909152509295506129f9945050505050565b348015610e0157600080fd5b5061023e60048036036040811015610e1857600080fd5b6001600160a01b038235169190810190604081016020820135600160201b811115610e4257600080fd5b820183602082011115610e5457600080fd5b803590602001918460018302840111600160201b83111715610e7557600080fd5b91908080601f016020809104026020016040519081016040528093929190818152602001838380828437600092019190915250929550612a4a945050505050565b348015610ec257600080fd5b5061023e612a9b565b348015610ed757600080fd5b50610ef560048036036020811015610eee57600080fd5b5035612aa4565b60405180878152602001868152602001856007811115610f1157fe5b60ff1681526020018060200180602001846001600160a01b03166001600160a01b03168152602001838103835286818151815260200191508051906020019080838360005b83811015610f6e578181015183820152602001610f56565b50505050905090810190601f168015610f9b5780820380516001836020036101000a031916815260200191505b50838103825285518152855160209182019187019080838360005b83811015610fce578181015183820152602001610fb6565b50505050905090810190601f168015610ffb5780820380516001836020036101000a031916815260200191505b509850505050505050505060405180910390f35b61023e6004803603602081101561102557600080fd5b5035612c73565b34801561103857600080fd5b5061023e612e98565b61023e6004803603606081101561105757600080fd5b508035906001600160a01b036020820135169060400135612ea1565b34801561107f57600080fd5b5061023e6004803603608081101561109657600080fd5b81359190810190604081016020820135600160201b8111156110b757600080fd5b8201836020820111156110c957600080fd5b803590602001918460018302840111600160201b831117156110ea57600080fd5b91908080601f0160208091040260200160405190810160405280939291908181526020018383808284376000920191909152509295949360208101935035915050600160201b81111561113c57600080fd5b82018360208201111561114e57600080fd5b803590602001918460018302840111600160201b8311171561116f57600080fd5b91908080601f01602080910402602001604051908101604052809392919081815260200183838082843760009201919091525092955050913592506131f4915050565b3480156111be57600080fd5b506102556133c3565b3480156111d357600080fd5b5061023e6133c9565b3480156111e857600080fd5b50610255600480360360208110156111ff57600080fd5b50356001600160a01b03166133d2565b61121833611940565b61125657604051600160e51b62461bcd02815260040180806020018281038252602a815260200180613d44602a913960400191505060405180910390fd5b6000818152600e60205260409020600801546001600160a01b03163381146112b257604051600160e51b62461bcd02815260040180806020018281038252602b815260200180613c44602b913960400191505060405180910390fd5b8160036000828152600e602052604090206004015460ff1660078111156112d557fe5b146112df57600080fd5b6000838152600e60209081526040918290206004908101805460ff1916909117610100600160a81b0319163361010002179055815185815291517f40557acb2ee4dc77f56ffb057df48183f6914c97d92dbc8b31c79d83ddaa746c9281900390910190a1505050565b60095481565b61135733611ce4565b61139557604051600160e51b62461bcd028152600401808060200182810382526027815260200180613d6e6027913960400191505060405180910390fd5b8160026000828152600e602052604090206004015460ff1660078111156113b857fe5b14806113e3575060026000828152600f602052604090206003015460ff1660078111156113e157fe5b145b61142157604051600160e51b62461bcd028152600401808060200182810382526029815260200180613d1b6029913960400191505060405180910390fd5b6000838152600e60205260409020600501546001600160a01b031633811461147d57604051600160e51b62461bcd02815260040180806020018281038252602b815260200180613c44602b913960400191505060405180910390fd5b6032803410156114c157604051600160e51b62461bcd028152600401808060200182810382526024815260200180613cd06024913960400191505060405180910390fd5b604051603290603119340190339082156108fc029083906000818181858888f193505050501580156114f7573d6000803e3d6000fd5b5061150186611940565b61153f57604051600160e51b62461bcd028152600401808060200182810382526036815260200180613c9a6036913960400191505060405180910390fd5b6001600160a01b0386166000818152601260209081526040808320805460320190558a8352600e82529182902060048101805460ff1916600317905560080180546001600160a01b031916909317909255805189815290517f9b3b66e2380b690bae22c73ef1428fb0c91e72fe14a4b6defa13035214187aff929181900390910190a150505050505050565b6115d433611940565b61161257604051600160e51b62461bcd02815260040180806020018281038252602a815260200180613d44602a913960400191505060405180910390fd5b61161c82826133e4565b5050565b600061163360028363ffffffff61349d16565b92915050565b61164233611ce4565b61168057604051600160e51b62461bcd028152600401808060200182810382526027815260200180613d6e6027913960400191505060405180910390fd5b61161c82826134d2565b60008060008060008060006060806000806116a3613a44565b600e60008e815260200190815260200160002060405180610160016040529081600082015481526020016001820154815260200160028201548152602001600382015481526020016004820160009054906101000a900460ff16600781111561170857fe5b600781111561171357fe5b81526004820154610100908190046001600160a01b0390811660208085019190915260058501549091166040808501919091526006850180548251600260018316159096026000190190911694909404601f8101849004840285018401909252818452606090940193918301828280156117ce5780601f106117a3576101008083540402835291602001916117ce565b820191906000526020600020905b8154815290600101906020018083116117b157829003601f168201915b505050918352505060078201805460408051602060026001851615610100026000190190941693909304601f81018490048402820184019092528181529382019392918301828280156118625780601f1061183757610100808354040283529160200191611862565b820191906000526020600020905b81548152906001019060200180831161184557829003601f168201915b505050505081526020016008820160009054906101000a90046001600160a01b03166001600160a01b03166001600160a01b031681526020016009820160009054906101000a90046001600160a01b03166001600160a01b03166001600160a01b03168152505090508c9b5080602001519a508060400151995080606001519850806080015197508060a0015196508060c0015195508060e0015194508061010001519350806101200151925080610140015191505091939597999b90929496989a50565b600061163360048363ffffffff61349d16565b600a5481565b600061163360068363ffffffff61349d16565b61195c33613549565b565b61196733611927565b6119a557604051600160e51b62461bcd028152600401808060200182810382526027815260200180613cf46027913960400191505060405180910390fd5b6002600b54816119b157fe5b04803410156119f457604051600160e51b62461bcd028152600401808060200182810382526024815260200180613cd06024913960400191505060405180910390fd5b6002600b5481611a0057fe5b604051919004903482900390339082156108fc029083906000818181858888f19350505050158015611a36573d6000803e3d6000fd5b50611a4084611620565b611a7e57604051600160e51b62461bcd028152600401808060200182810382526037815260200180613c0d6037913960400191505060405180910390fd5b6002600b5481611a8a57fe5b6001600160a01b03861660008181526012602090815260408083208054969095049095019093558351610120810185526009548082528185018b8152600b548388019081526001606085018181526080860187905260a086019790975288518089018a5286815260c086015288518089018a5286815260e086015233610100860152928552600f90965295909220815181559451858301559251600285015590516003840180549394939192909160ff191690836007811115611b4957fe5b02179055506080820151600382018054610100600160a81b0319166101006001600160a01b039384160217905560a08301516004830180546001600160a01b0319169190921617905560c08201518051611bad916005840191602090910190613aa8565b5060e08201518051611bc9916006840191602090910190613aa8565b506101009190910151600790910180546001600160a01b0319166001600160a01b03909216919091179055600954604080516020810192909252808252600882820152600160c21b67105a5c98dc98599d026060830152517fee20f9a530a38efb9b5084634842190da254ab301e2fbdbc32e8b4831fa119fe916080908290030190a15050600980546001019055505050565b606061163360068363ffffffff61362216565b33600081815260126020526040808220805490839055905190929183156108fc02918491818181858888f1935050505015801561161c573d6000803e3d6000fd5b606061163360048363ffffffff61362216565b6008546001600160a01b031633141561195c576008546001600160a01b0316ff5b6000611633818363ffffffff61349d16565b606061163360028363ffffffff61362216565b606061163360008363ffffffff61362216565b6000806000806000806060806000611d32613b26565b600f60008c8152602001908152602001600020604051806101200160405290816000820154815260200160018201548152602001600282015481526020016003820160009054906101000a900460ff166007811115611d8d57fe5b6007811115611d9857fe5b81526003820154610100908190046001600160a01b0390811660208085019190915260048501549091166040808501919091526005850180548251600260018316159096026000190190911694909404601f810184900484028501840190925281845260609094019391830182828015611e535780601f10611e2857610100808354040283529160200191611e53565b820191906000526020600020905b815481529060010190602001808311611e3657829003601f168201915b505050918352505060068201805460408051602060026001851615610100026000190190941693909304601f8101849004840282018401909252818152938201939291830182828015611ee75780601f10611ebc57610100808354040283529160200191611ee7565b820191906000526020600020905b815481529060010190602001808311611eca57829003601f168201915b505050505081526020016007820160009054906101000a90046001600160a01b03166001600160a01b03166001600160a01b03168152505090508a9950806020015198508060400151975080606001519650806080015195508060a0015194508060c0015193508060e0015192508061010001519150509193959799909294969850565b600b5481565b611f7a33611620565b611fb857604051600160e51b62461bcd02815260040180806020018281038252602b815260200180613c6f602b913960400191505060405180910390fd5b8160056000828152600d602052604090206002015460ff166007811115611fdb57fe5b1480612006575060056000828152600e602052604090206004015460ff16600781111561200457fe5b145b61200f57600080fd5b6000838152600e602052604090206002015460076000828152600f602052604090206003015460ff16600781111561204357fe5b1461204d57600080fd5b6000848152600e60205260409020600901546001600160a01b03163381146120a957604051600160e51b62461bcd02815260040180806020018281038252602b815260200180613c44602b913960400191505060405180910390fd5b6000858152600e60209081526040808320600201548352600f9091529020600401546001600160a01b031633811461211557604051600160e51b62461bcd02815260040180806020018281038252602b815260200180613c44602b913960400191505060405180910390fd5b6000868152600e60209081526040808320600481018054600660ff199182168117909255600292830180548752600f86528487206003018054909216841790915554855293829020915191909301805490938993929092019182918591600182161561010002600019019091160480156121c65780601f106121a45761010080835404028352918201916121c6565b820191906000526020600020905b8154815290600101906020018083116121b2575b5050807f2c20417373656d626c792073746167653a20000000000000000000000000000081525060120182805190602001908083835b6020831061221b5780518252601f1990920191602091820191016121fc565b51815160209384036101000a60001901801990921691161790526040805192909401828103601f19018352845260008d8152600e8252848120600201548152600f825293909320815161227b97506006909101955092019250613aa89050565b506040805160208101889052818152600981830152600160ba1b68115c5d5a5c1b595b9d02606082015290517ff483c0ff86be99710e68da02dfe7221e72ac74497e964c64ecfa8263f7328a0d9181900360800190a16000868152600e602090815260409182902060020154825191820152818152600881830152600160c21b67105a5c98dc98599d02606082015290517f29d4d0465954aaca60398e805f0cb2517fe0136ee366cee0f0a9b945b94406af9181900360800190a1505050505050565b61234733611927565b61238557604051600160e51b62461bcd028152600401808060200182810382526027815260200180613cf46027913960400191505060405180910390fd5b8060026000828152600e602052604090206004015460ff1660078111156123a857fe5b14806123d3575060026000828152600f602052604090206003015460ff1660078111156123d157fe5b145b61241157604051600160e51b62461bcd028152600401808060200182810382526029815260200180613d1b6029913960400191505060405180910390fd5b6000828152600f60205260409020600701546001600160a01b031633811461246d57604051600160e51b62461bcd02815260040180806020018281038252602b815260200180613c44602b913960400191505060405180910390fd5b6002600b548161247957fe5b04803410156124bc57604051600160e51b62461bcd028152600401808060200182810382526024815260200180613cd06024913960400191505060405180910390fd5b6002600b54816124c857fe5b604051919004903482900390339082156108fc029083906000818181858888f193505050501580156124fe573d6000803e3d6000fd5b506002600b548161250b57fe5b6000888152600f6020818152604080842060048101546001600160a01b0316855260128352818520805497909604909601909455918a9052815260039092018054600560ff1990911617610100600160a81b03191633610100021790558051918201889052808252600882820152600160c21b67105a5c98dc98599d026060830152517fe8d07eff288e91f1031a161b9fb2beeb625089f6646bd4fa503bd7794039d2d5916080908290030190a1505050505050565b6125ca33611620565b61260857604051600160e51b62461bcd02815260040180806020018281038252602b815260200180613c6f602b913960400191505060405180910390fd5b8260016000828152600e602052604090206004015460ff16600781111561262b57fe5b1480612656575060016000828152600f602052604090206003015460ff16600781111561265457fe5b145b61265f57600080fd5b6000848152600f60209081526040909120600381018054600760ff1990911617610100600160a81b031916336101000217905584516126a692600590920191860190613aa8565b506000848152600f6020908152604090912083516126cc92600690920191850190613aa8565b506040805185815290517f9f285a4c30fd65231edca88ea245b71672d42ab77e2e45d8635fac98acf51a949181900360200190a150505050565b61270f33611ce4565b61274d57604051600160e51b62461bcd028152600401808060200182810382526027815260200180613d6e6027913960400191505060405180910390fd5b8260056000828152600d602052604090206002015460ff16600781111561277057fe5b148061279b575060056000828152600e602052604090206004015460ff16600781111561279957fe5b145b6127a457600080fd5b6000848152600d60205260409020600190810154906000828152600e602052604090206004015460ff1660078111156127d957fe5b1480612804575060016000828152600f602052604090206003015460ff16600781111561280257fe5b145b61280d57600080fd5b6000858152600d60209081526040808320600101548352600e9091529020600501546001600160a01b031633811461287957604051600160e51b62461bcd02815260040180806020018281038252602b815260200180613c44602b913960400191505060405180910390fd5b6000868152600d6020908152604080832060028082018054600660ff199182168117909255600193840180548852600e87528588209094018d905583548752848720600490810180549092169093179055825486528386209091018054610100600160a81b03191633610100021790559054845292208751612902939190910191880190613aa8565b506000868152600d60209081526040808320600101548352600e8252909120855161293592600790920191870190613aa8565b506040805160208101889052818152600981830152600160ba1b6810dbdb5c1bdb995b9d02606082015290517ff483c0ff86be99710e68da02dfe7221e72ac74497e964c64ecfa8263f7328a0d9181900360800190a16000868152600d602090815260409182902060010154825191820152818152600981830152600160ba1b68115c5d5a5c1b595b9d02606082015290517f29d4d0465954aaca60398e805f0cb2517fe0136ee366cee0f0a9b945b94406af9181900360800190a1505050505050565b612a0233611927565b612a4057604051600160e51b62461bcd028152600401808060200182810382526027815260200180613cf46027913960400191505060405180910390fd5b61161c82826136d0565b612a5333611620565b612a9157604051600160e51b62461bcd02815260040180806020018281038252602b815260200180613c6f602b913960400191505060405180910390fd5b61161c8282613747565b61195c336137be565b60008060006060806000612ab6613b7c565b6000888152600d6020908152604091829020825160c081018452815481526001820154928101929092526002810154919290919083019060ff166007811115612afb57fe5b6007811115612b0657fe5b815260038201805460408051602060026001851615610100026000190190941693909304601f8101849004840282018401909252818152938201939291830182828015612b945780601f10612b6957610100808354040283529160200191612b94565b820191906000526020600020905b815481529060010190602001808311612b7757829003601f168201915b505050918352505060048201805460408051602060026001851615610100026000190190941693909304601f8101849004840282018401909252818152938201939291830182828015612c285780601f10612bfd57610100808354040283529160200191612c28565b820191906000526020600020905b815481529060010190602001808311612c0b57829003601f168201915b5050509183525050600591909101546001600160a01b031660209182015281015160408201516060830151608084015160a0909401519b9c929b919a50985091965090945092505050565b612c7c33611620565b612cba57604051600160e51b62461bcd02815260040180806020018281038252602b815260200180613c6f602b913960400191505060405180910390fd5b8060046000828152600e602052604090206004015460ff166007811115612cdd57fe5b14612ce757600080fd5b6000828152600e60205260409020600901546001600160a01b0316338114612d4357604051600160e51b62461bcd02815260040180806020018281038252602b815260200180613c44602b913960400191505060405180910390fd5b6002600c5481612d4f57fe5b0480341015612d9257604051600160e51b62461bcd028152600401808060200182810382526024815260200180613cd06024913960400191505060405180910390fd5b6002600c5481612d9e57fe5b604051919004903482900390339082156108fc029083906000818181858888f19350505050158015612dd4573d6000803e3d6000fd5b506002600c5481612de157fe5b6000888152600e6020818152604080842060088101546001600160a01b0316855260128352818520805497909604909601909455918a9052815260049092018054600560ff1990911617610100600160a81b03191633610100021790558051918201889052808252600982820152600160ba1b68115c5d5a5c1b595b9d026060830152517fe8d07eff288e91f1031a161b9fb2beeb625089f6646bd4fa503bd7794039d2d5916080908290030190a1505050505050565b61195c33613859565b612eaa33611620565b612ee857604051600160e51b62461bcd02815260040180806020018281038252602b815260200180613c6f602b913960400191505060405180910390fd5b8060016000828152600e602052604090206004015460ff166007811115612f0b57fe5b1480612f36575060016000828152600f602052604090206003015460ff166007811115612f3457fe5b145b612f3f57600080fd5b600a5480341015612f8457604051600160e51b62461bcd028152600401808060200182810382526024815260200180613cd06024913960400191505060405180910390fd5b600a546040513482900390339082156108fc029083906000818181858888f19350505050158015612fb9573d6000803e3d6000fd5b50612fc386611ce4565b61300157604051600160e51b62461bcd028152600401808060200182810382526033815260200180613bda6033913960400191505060405180910390fd5b600a80546001600160a01b038816600081815260126020908152604080832080549095019094558351610160810185528c81528082018381528186018c815296546060830190815260016080840181815260a0850187905260c08501979097528751808601895286815260e0850152875180860189528681526101008501526101208401869052336101408501528f8652600e90945295909320815181559251838301559451600283015592516003820155905160048201805492939192909160ff1991909116908360078111156130d557fe5b021790555060a0820151600482018054610100600160a81b0319166101006001600160a01b039384160217905560c08301516005830180546001600160a01b0319169190921617905560e08201518051613139916006840191602090910190613aa8565b506101008201518051613156916007840191602090910190613aa8565b506101208201516008820180546001600160a01b03199081166001600160a01b0393841617909155610140909301516009928301805490941691161790915560408051602081018a905281815280820192909252600160ba1b68115c5d5a5c1b595b9d026060830152517fee20f9a530a38efb9b5084634842190da254ab301e2fbdbc32e8b4831fa119fe916080908290030190a150505050505050565b6131fd33611ce4565b61323b57604051600160e51b62461bcd028152600401808060200182810382526027815260200180613d6e6027913960400191505060405180910390fd5b8060016000828152600e602052604090206004015460ff16600781111561325e57fe5b1480613289575060016000828152600f602052604090206003015460ff16600781111561328757fe5b145b61329257600080fd5b6040805160c0810182528681526020808201858152600583850190815260608401899052608084018890523360a085015260008a8152600d909352939091208251815590516001808301919091559251600282018054939492939192909160ff19169083600781111561330157fe5b021790555060608201518051613321916003840191602090910190613aa8565b506080820151805161333d916004840191602090910190613aa8565b5060a09190910151600590910180546001600160a01b0319166001600160a01b039092169190911790556040805160208101879052818152600981830152600160ba1b6810dbdb5c1bdb995b9d02606082015290517fe8d07eff288e91f1031a161b9fb2beeb625089f6646bd4fa503bd7794039d2d59181900360800190a15050505050565b600c5481565b61195c336138f6565b60126020526000908152604090205481565b6133f66006838363ffffffff61399316565b816001600160a01b03167fe75da5aa7388528834f74b340be0eeec627b6baf7bd9bb366b449200e9e90af1826040518080602001828103825283818151815260200191508051906020019080838360005b8381101561345f578181015183820152602001613447565b50505050905090810190601f16801561348c5780820380516001836020036101000a031916815260200191505b509250505060405180910390a25050565b60006001600160a01b0382166134b257600080fd5b506001600160a01b03166000908152602091909152604090205460ff1690565b6134e46000838363ffffffff61399316565b60408051602080825283518183015283516001600160a01b038616937f341e5ec549c32180adbca98effbeb9a39daa5471701e8b06b83698b5c22a6408938693909283928301918501908083836000831561345f578181015183820152602001613447565b61355a60068263ffffffff6139fc16565b6001600160a01b03811660008181526007602090815260409182902082518281528154600260001961010060018416150201909116049281018390527fae28db74d4f224414629a13b38332abb95a0ff325fd9df91dfd1c5c1e38fa4849391929091829190820190849080156136115780601f106135e657610100808354040283529160200191613611565b820191906000526020600020905b8154815290600101906020018083116135f457829003601f168201915b50509250505060405180910390a250565b6001600160a01b03811660009081526001838101602090815260409283902080548451600294821615610100026000190190911693909304601f810183900483028401830190945283835260609390918301828280156136c35780601f10613698576101008083540402835291602001916136c3565b820191906000526020600020905b8154815290600101906020018083116136a657829003601f168201915b5050505050905092915050565b6136e26004838363ffffffff61399316565b60408051602080825283518183015283516001600160a01b038616937f2ca4013d205e98e6d17064d457e517852f176874b780bda762e655e9ed5eaa02938693909283928301918501908083836000831561345f578181015183820152602001613447565b6137596002838363ffffffff61399316565b60408051602080825283518183015283516001600160a01b038616937f1945d2c71d577291ed89748399bbcdcedbcb3611bdd9032a98b82b00e636f388938693909283928301918501908083836000831561345f578181015183820152602001613447565b6137cf60008263ffffffff6139fc16565b6001600160a01b03811660008181526001602081815260409283902083518281528154600294811615610100026000190116939093049183018290527fe36ebd8e440d660cfc55b0c59f6de37efee97d3a8599e95123250f1b1ddfb971939092918291820190849080156136115780601f106135e657610100808354040283529160200191613611565b61386a60048263ffffffff6139fc16565b6001600160a01b03811660008181526005602090815260409182902082518281528154600260001961010060018416150201909116049281018390527f7ac3aec2edbc7275678a3a896abca4167dc04474328732fdfde9ffc8a7a8fb659391929091829190820190849080156136115780601f106135e657610100808354040283529160200191613611565b61390760028263ffffffff6139fc16565b6001600160a01b03811660008181526003602090815260409182902082518281528154600260001961010060018416150201909116049281018390527fc86770f28881a7280276ec532eea689e244dd34a2285d43a2b6b89244b3263369391929091829190820190849080156136115780601f106135e657610100808354040283529160200191613611565b6001600160a01b0382166139a657600080fd5b6139b0838361349d565b156139ba57600080fd5b6001600160a01b038216600090815260208481526040808320805460ff191660019081179091558601825290912082516139f692840190613aa8565b50505050565b6001600160a01b038116613a0f57600080fd5b613a19828261349d565b613a2257600080fd5b6001600160a01b0316600090815260209190915260409020805460ff19169055565b6040518061016001604052806000815260200160008152602001600081526020016000815260200160006007811115613a7957fe5b8152600060208201819052604082018190526060808301819052608083015260a0820181905260c09091015290565b828054600181600116156101000203166002900490600052602060002090601f016020900481019282601f10613ae957805160ff1916838001178555613b16565b82800160010185558215613b16579182015b82811115613b16578251825591602001919060010190613afb565b50613b22929150613bbc565b5090565b60405180610120016040528060008152602001600081526020016000815260200160006007811115613b5457fe5b8152600060208201819052604082018190526060808301819052608083015260a09091015290565b6040518060c00160405280600081526020016000815260200160006007811115613ba257fe5b815260606020820181905260408201819052600091015290565b613bd691905b80821115613b225760008155600101613bc2565b9056fe54686520616464726573732070726f766964656420646f6573206e6f742062656c6f6e6720746f206120537570706c6965722154686520616464726573732070726f766964656420646f6573206e6f742062656c6f6e6720746f2061204d616e7566616374757265722143616c6c6572206e6f7420616c6c6f77656420746f206578656375746520746869732066756e6374696f6e4f6e6c79204d616e756661637475726572732063616e20706572666f726d207468697320616374696f6e2154686520616464726573732070726f766964656420646f6573206e6f742062656c6f6e6720746f2061205472616e73706f727465722156616c75652073656e7420646f6573206e6f7420636f76657220746865207072696365214f6e6c7920437573746f6d6572732063616e20706572666f726d207468697320616374696f6e214d697373696e67206173736574206f7220617373657420696e207468652077726f6e672073746174654f6e6c79205472616e73706f72746572732063616e20706572666f726d207468697320616374696f6e214f6e6c7920537570706c696572732063616e20706572666f726d207468697320616374696f6e21a165627a7a72305820dd926416815d5d98f18cc6c8186c0682944e3c586456ed1e7f9257bb1d8dc1040029",
  "source": "pragma solidity ^0.5.0;\nimport \"../accesscontrol/SupplierRole.sol\";\nimport \"../accesscontrol/ManufacturerRole.sol\";\nimport \"../accesscontrol/CustomerRole.sol\";\nimport \"../accesscontrol/TransporterRole.sol\";\n\n\n// Define a contract 'Supplychain'\n// note that by inheriting all these contracts, the deployer of this contract will have all roles!);\ncontract SupplyChain is\nSupplierRole(\"Owner\"),\nManufacturerRole(\"Owner\"),\nCustomerRole(\"Owner\"),\nTransporterRole(\"Owner\") {\n\n    // Define \"owner\"\n    address payable owner;\n\n    // Define a variable called 'man' for Manufacturer Serial Number (AC)\n    uint public msn;\n\n    /* to simplify prices are fixed within the contract.\n     They could also be part of the constructor arguments.\n     Price should be shared between supplier and manufacturer via e.g a shared catalog.\n     As part of the contract data they are visible by anyone anyway.\n     */\n    uint public equipmentPrice = 1000; //\n    uint public aircraftPrice = 1000000000000000000; // 1 ETH\n    uint public transportFee = 100; //\n    // Define a public mappings 'assets' that maps the UPC to an asset.\n    mapping (uint => Component) components;\n    mapping (uint => Equipment) equipments;\n    mapping(uint => Aircraft) aircrafts;\n\n\n    // Define a public mapping 'assetsHistory' that maps the UPC to an array of TxHash,\n    // that track its journey through the supply chain -- to be sent from DApp.\n    mapping (uint => string[]) componentsHistory;\n    mapping (uint => string[]) equipmentsHistory;\n\n    // define the mapping for the withdrawal pattern\n    // see https://solidity.readthedocs.io/en/v0.5.3/common-patterns.html#withdrawal-from-contracts\n    mapping (address => uint) public pendingWithdrawals;\n\n    // Define enum 'State' with the following values:\n    enum State {\n        Unhandled,     // 0\n        Ordered,       // 1\n        Assembled,     // 2\n        Packed,        // 3\n        InTransit,     // 4\n        Received,      // 5\n        Integrated,    // 6\n        StructureReady // 7\n    }\n\n    // Define 8 events with the same 8 state values\n    event Ordered(string asset, uint id); // asset= aircraft, equipment or equipment, id=msn or id\n    event Assembled(string asset, uint id);\n    event Packed(uint id);\n    event InTransit(uint id);\n    event Received(string asset, uint id);\n    event Integrated(string asset, uint id);\n    event StructureReady(uint msn);\n\n    // Define strut for each asset: Component, Equipment, Aircraft\n    struct Component {\n        uint id; // Universal Product Code (UPC) - unique to the product\n        uint equipmentID;  // Equipment ID that component will be part of\n        State state;  // Component State as represented in the enum above\n        string originManufacturerName; // Manufacturer Name\n        string originPlant;  // city\n        address supplierID;  // Metamask-Ethereum address of the equipment supplier that bought this equipment\n    }\n\n    // Define a struct 'Equipment' with the following fields:\n    struct Equipment {\n        uint id; // Universal Product Code (UPC) - unique to the product\n        uint componentID; // component integrated into this equipment\n        uint msn;  // MSN that equipment will be part of\n        uint price;\n        State state;  // Equipment State as represented in the enum above\n        address ownerID;  // address of the current owner as the equipment moves though the supply chain\n        address payable supplierID;  // address of user with supplier role that produced this equipment\n        string originPlant;  // city where equipment was produced\n        string equipmentNotes; // Equipment Notes\n        address payable transporterID;  // address of the Transporter\n        address payable manufacturerID; // address of the AC manufacturer that bought the equipment with this equipment\n    }\n\n    struct Aircraft {\n        uint msn;\n        uint equipmentID; // id of the equipment integrated into this AC\n        uint price;\n        State state;\n        address ownerID;\n        address payable manufacturerID; // AC Manufacturer that produced this AC\n        string originPlant;\n        string aircraftNotes;\n        address customerID; // airline that bought this aircraft\n    }\n\n    modifier onlyOwner() {\n        require(msg.sender == owner);\n        _;\n    }\n\n    modifier verifyCaller (address _address) {\n        require(msg.sender == _address, \"Caller not allowed to execute this function\");\n        _;\n    }\n\n    modifier paidEnough(uint _price) {\n        require(msg.value >= _price, \"Value sent does not cover the price!\");\n        _;\n    }\n\n    // Define a modifier that checks the price and refunds the remaining balance\n    modifier checkValue(uint _price) {\n        uint amountToReturn = msg.value - _price;\n        msg.sender.transfer(amountToReturn);\n        _;\n    }\n\n    modifier ordered(uint _idOrMsn) {\n        require(equipments[_idOrMsn].state == State.Ordered || aircrafts[_idOrMsn].state == State.Ordered);\n        _;\n    }\n\n    modifier received(uint _id) {\n        require(components[_id].state == State.Received || equipments[_id].state == State.Received);\n        _;\n    }\n\n    modifier assembled(uint _idOrMsn) {\n        require(\n            equipments[_idOrMsn].state == State.Assembled || aircrafts[_idOrMsn].state == State.Assembled,\n            \"Missing asset or asset in the wrong state\");\n        _;\n    }\n\n    modifier packed(uint _id) {\n        require(equipments[_id].state == State.Packed);\n        _;\n    }\n\n    modifier inTransit(uint _id) {\n        require(equipments[_id].state == State.InTransit);\n        _;\n    }\n\n    modifier structureReady(uint _id) {\n        require(aircrafts[_id].state == State.StructureReady);\n        _;\n    }\n\n    // In the constructor set 'owner' to the address that instantiated the contract\n    // and set 'msn' to 1\n    constructor() public payable {\n        owner = msg.sender;\n        msn = 1;\n    }\n\n    // Define a function 'kill' if required\n    function kill() public {\n        if (msg.sender == owner) {\n            selfdestruct(owner);\n        }\n    }\n\n    // Allows users to withdraw their payments from the contract\n    function withdraw() public {\n        uint amount = pendingWithdrawals[msg.sender];\n        pendingWithdrawals[msg.sender] = 0;\n        msg.sender.transfer(amount);\n    }\n\n    // function to order an AC. Customer provides the equipment he wants and the manufacterID\n    function orderAircraft(uint _equipmentID, address payable _manufacturerID)\n    public\n    payable\n    onlyCustomer\n    paidEnough(aircraftPrice / 2)\n    checkValue(aircraftPrice / 2)\n    {\n        require(isManufacturer(_manufacturerID), \"The address provided does not belong to a Manufacturer!\");\n        pendingWithdrawals[_manufacturerID] += aircraftPrice / 2;\n        aircrafts[msn] = Aircraft(\n            msn,\n            _equipmentID,\n            aircraftPrice,\n            State.Ordered,\n            address(0), // AC doesn't exist yet so no owner!\n            _manufacturerID,\n            \"\", // originPlant provided when AC ready by Manufacturer\n            \"\", // originNotes provided when AC ready by Manufacturer\n            msg.sender\n        );\n\n        emit Ordered(\"Aircraft\", msn);\n        msn++;\n    }\n\n    function orderEquipment(\n        uint _equipmentID,\n        address payable _supplierID,\n        uint _msn\n    )\n    public\n    payable\n    onlyManufacturer\n    ordered(_msn)\n    paidEnough(equipmentPrice)\n    checkValue(equipmentPrice)\n    {\n        require(isSupplier(_supplierID), \"The address provided does not belong to a Supplier!\");\n        pendingWithdrawals[_supplierID] += equipmentPrice;\n\n        // Add the new Component as part of the mapping\n        equipments[_equipmentID] = Equipment(\n            _equipmentID,\n            0, // the supplier will decide which component he'll use to produce this equipment\n            _msn,\n            equipmentPrice,\n            State.Ordered,\n            address(0), // equipment doesn't exist yet so no owner\n            _supplierID,\n            \"\", // originPlant will be updated by supplier, he decides where to produce\n            \"\", // equipmentNotes filled by Supplier at production state\n            address(0), // transportID filled by supplier at shipment stage\n            msg.sender\n        );\n        emit Ordered(\"Equipment\", _equipmentID);\n    }\n\n    function receiveComponent(\n        uint _componentID,\n        string memory _originManufacturerName,\n        string memory _originPlant,\n        uint _equipmentID\n    )\n    public\n    onlySupplier\n    ordered(_equipmentID)\n    {\n        // Add the new Component as part of the mapping\n        components[_componentID] = Component(\n            _componentID,\n            _equipmentID,\n            State.Received,\n            _originManufacturerName,\n            _originPlant,\n            msg.sender\n        );\n\n        // Emit the appropriate event\n        emit Received(\"Component\", _componentID);\n    }\n\n    function processComponent(\n        uint _componentID,\n        string memory _originPlant,\n        string memory _equipmentNotes\n    )\n    public\n    onlySupplier\n    received(_componentID)\n    ordered(components[_componentID].equipmentID)\n    // verify that caller is the same as the supplier contracted by the manufacturer who ordered the equipment\n    verifyCaller(equipments[components[_componentID].equipmentID].supplierID)\n    {\n        components[_componentID].state = State.Integrated;\n\n        equipments[components[_componentID].equipmentID].componentID = _componentID;\n        equipments[components[_componentID].equipmentID].state = State.Assembled;\n        equipments[components[_componentID].equipmentID].ownerID = msg.sender;\n        equipments[components[_componentID].equipmentID].originPlant = _originPlant;\n        equipments[components[_componentID].equipmentID].equipmentNotes = _equipmentNotes;\n\n        emit Integrated(\"Component\", _componentID);\n        emit Assembled(\"Equipment\", components[_componentID].equipmentID);\n    }\n\n    function prepareStructure(\n        uint _msn,\n        string memory _originPlant,\n        string memory _aircraftNotes\n    )\n    public\n    onlyManufacturer\n    ordered(_msn)\n    {\n        aircrafts[_msn].state = State.StructureReady;\n        aircrafts[_msn].ownerID = msg.sender;\n        aircrafts[_msn].originPlant = _originPlant;\n        aircrafts[_msn].aircraftNotes = _aircraftNotes;\n\n        emit StructureReady(_msn);\n    }\n\n    function packEquipment(uint _equipmentID, address payable _transporterID)\n    public\n    payable\n    onlySupplier\n    assembled(_equipmentID)\n    // verify that caller is the supplier that was contracted by manufacturer that ordered the equipment\n    verifyCaller(equipments[_equipmentID].supplierID)\n    // Supplier pays halfs the transportFee at expedition stage\n    paidEnough(50)\n    checkValue(50)\n    {\n        require(isTransporter(_transporterID), \"The address provided does not belong to a Transporter!\");\n        pendingWithdrawals[_transporterID] += 50;\n\n        equipments[_equipmentID].state = State.Packed;\n        equipments[_equipmentID].transporterID = _transporterID;\n\n        emit Packed(_equipmentID);\n    }\n\n    function transportEquipment(uint _equipmentID)\n    public\n    onlyTransporter\n    // verify that caller is the transporter that was contracted by the supplier\n    verifyCaller(equipments[_equipmentID].transporterID)\n    packed(_equipmentID)\n    {\n        equipments[_equipmentID].state = State.InTransit;\n        equipments[_equipmentID].ownerID = msg.sender;\n        emit InTransit(_equipmentID);\n    }\n\n    function receiveEquipment(uint _equipmentID)\n    public\n    payable\n    onlyManufacturer\n    inTransit(_equipmentID)\n    // verify that caller is the manufactuer that ordered the equipment in the first place\n    verifyCaller(equipments[_equipmentID].manufacturerID)\n    // manufactuer pays second half of the transportFee\n    paidEnough(transportFee / 2)\n    checkValue(transportFee / 2)\n    {\n        pendingWithdrawals[equipments[_equipmentID].transporterID] += transportFee / 2;\n\n        equipments[_equipmentID].state = State.Received;\n        equipments[_equipmentID].ownerID = msg.sender;\n\n        emit Received(\"Equipment\", _equipmentID);\n    }\n\n    function processEquipment(uint _equipmentID, string memory _aircraftNotes)\n    public\n    onlyManufacturer\n    received(_equipmentID)\n    structureReady(equipments[_equipmentID].msn)\n    // verify that caller is the same as the manufacturer who ordered the equipment in the first place\n    verifyCaller(equipments[_equipmentID].manufacturerID)\n    // verify that caller is the same as the manufacturer contracted by the customer who ordered the aircraft\n    verifyCaller(aircrafts[equipments[_equipmentID].msn].manufacturerID)\n    {\n        equipments[_equipmentID].state = State.Integrated;\n\n        aircrafts[equipments[_equipmentID].msn].state = State.Assembled;\n        // possiblity to update notes at this stage:\n        aircrafts[equipments[_equipmentID].msn].aircraftNotes = string(abi.encodePacked(\n            aircrafts[equipments[_equipmentID].msn].aircraftNotes,\n            \", Assembly stage: \",\n            _aircraftNotes\n        ));\n\n        emit Integrated(\"Equipment\", _equipmentID);\n        emit Assembled(\"Aircraft\", equipments[_equipmentID].msn);\n    }\n\n    // !!!!!!!!!!!!!! CAUSE OUT OF GAS ERROR\n    function receiveAircraft(uint _msn)\n    public\n    payable\n    onlyCustomer\n    assembled(_msn)\n    verifyCaller(aircrafts[_msn].customerID)\n    // customer pays second half at aircraft reception\n    paidEnough(aircraftPrice / 2)\n    checkValue(aircraftPrice / 2)\n    {\n        pendingWithdrawals[aircrafts[_msn].manufacturerID] += aircraftPrice / 2;\n\n        aircrafts[_msn].state = State.Received;\n        aircrafts[_msn].ownerID = msg.sender;\n\n        emit Received(\"Aircraft\", _msn);\n    }\n\n    // Define functions 'fetchAsset' that fetches the data of a given asset\n    function fetchComponent(uint _id)\n    public\n    view\n    returns (\n        uint componentUPC,\n        uint equipmentID,\n        State state,\n        string memory originManufacturerName,\n        string memory originPlant,\n        address supplierID\n    )\n    {\n        // Assign values to the parameters\n        Component memory component = components[_id];\n        componentUPC = _id;\n        equipmentID = component.equipmentID;\n        state = component.state;\n        originManufacturerName = component.originManufacturerName;\n        originPlant = component.originPlant;\n        supplierID = component.supplierID;\n    }\n\n    function fetchEquipment(uint _id)\n    public\n    view\n    returns (\n        uint equipmentUPC,\n        uint componentID,\n        uint aircraftMsn,\n        uint price,\n        State state,\n        address ownerID,\n        address supplierID,\n        string memory originPlant,\n        string memory equipmentNotes,\n        address transporterID,\n        address manufacturerID\n    )\n    {\n        // Assign values to the 7 parameters\n        Equipment memory equipment = equipments[_id];\n        equipmentUPC = _id;\n        componentID = equipment.componentID;\n        aircraftMsn = equipment.msn;\n        price = equipment.price;\n        state = equipment.state;\n        ownerID = equipment.ownerID;\n        supplierID = equipment.supplierID;\n        originPlant = equipment.originPlant;\n        equipmentNotes = equipment.equipmentNotes;\n        transporterID = equipment.transporterID;\n        manufacturerID = equipment.manufacturerID;\n    }\n\n    function fetchAircraft(uint _msn)\n    public\n    view\n    returns (\n        uint aircraftMsn,\n        uint equipmentID,\n        uint price,\n        State state,\n        address ownerID,\n        address manufacturerID,\n        string memory originPlant,\n        string memory aircraftNotes,\n        address customerID\n    )\n    {\n        Aircraft memory aircraft = aircrafts[_msn];\n        aircraftMsn = _msn;\n        equipmentID = aircraft.equipmentID;\n        price = aircraft.price;\n        state = aircraft.state;\n        ownerID = aircraft.ownerID;\n        manufacturerID = aircraft.manufacturerID;\n        originPlant = aircraft.originPlant;\n        aircraftNotes = aircraft.aircraftNotes;\n        customerID = aircraft.customerID;\n    }\n}\n",
  "compiler": {
    "name": "solc",
    "version": "0.5.8+commit.23d335f2.Emscripten.clang"
  },
  "schemaVersion": "3.0.16",
  "updatedAt": "2020-05-14T20:07:23.920Z",
  "devdoc": {
    "methods": {}
  },
  "userdoc": {
    "methods": {}
  }
}