{
  "contractName": "SupplierRole",
  "abi": [
    {
      "inputs": [
        {
          "name": "name",
          "type": "string"
        }
      ],
      "payable": false,
      "stateMutability": "nonpayable",
      "type": "constructor"
    },
    {
      "anonymous": false,
      "inputs": [
        {
          "indexed": true,
          "name": "account",
          "type": "address"
        },
        {
          "indexed": false,
          "name": "name",
          "type": "string"
        }
      ],
      "name": "SupplierAdded",
      "type": "event"
    },
    {
      "anonymous": false,
      "inputs": [
        {
          "indexed": true,
          "name": "account",
          "type": "address"
        },
        {
          "indexed": false,
          "name": "name",
          "type": "string"
        }
      ],
      "name": "SupplierRemoved",
      "type": "event"
    },
    {
      "constant": true,
      "inputs": [
        {
          "name": "account",
          "type": "address"
        }
      ],
      "name": "getNameSupplier",
      "outputs": [
        {
          "name": "",
          "type": "string"
        }
      ],
      "payable": false,
      "stateMutability": "view",
      "type": "function"
    },
    {
      "constant": true,
      "inputs": [
        {
          "name": "account",
          "type": "address"
        }
      ],
      "name": "isSupplier",
      "outputs": [
        {
          "name": "",
          "type": "bool"
        }
      ],
      "payable": false,
      "stateMutability": "view",
      "type": "function"
    },
    {
      "constant": false,
      "inputs": [
        {
          "name": "account",
          "type": "address"
        },
        {
          "name": "name",
          "type": "string"
        }
      ],
      "name": "addSupplier",
      "outputs": [],
      "payable": false,
      "stateMutability": "nonpayable",
      "type": "function"
    },
    {
      "constant": false,
      "inputs": [],
      "name": "renounceSupplier",
      "outputs": [],
      "payable": false,
      "stateMutability": "nonpayable",
      "type": "function"
    }
  ],
  "bytecode": "0x608060405234801561001057600080fd5b506040516109283803806109288339810180604052602081101561003357600080fd5b81019080805164010000000081111561004b57600080fd5b8201602081018481111561005e57600080fd5b815164010000000081118282018710171561007857600080fd5b5050929190505050610090338261009660201b60201c565b50610296565b6100b08282600061015760201b6104e4179092919060201c565b816001600160a01b03167f341e5ec549c32180adbca98effbeb9a39daa5471701e8b06b83698b5c22a6408826040518080602001828103825283818151815260200191508051906020019080838360005b83811015610119578181015183820152602001610101565b50505050905090810190601f1680156101465780820380516001836020036101000a031916815260200191505b509250505060405180910390a25050565b6001600160a01b03821661016a57600080fd5b61017a83836101c660201b60201c565b1561018457600080fd5b6001600160a01b038216600090815260208481526040808320805460ff191660019081179091558601825290912082516101c0928401906101fb565b50505050565b60006001600160a01b0382166101db57600080fd5b506001600160a01b03166000908152602091909152604090205460ff1690565b828054600181600116156101000203166002900490600052602060002090601f016020900481019282601f1061023c57805160ff1916838001178555610269565b82800160010185558215610269579182015b8281111561026957825182559160200191906001019061024e565b50610275929150610279565b5090565b61029391905b80821115610275576000815560010161027f565b90565b610683806102a56000396000f3fe608060405234801561001057600080fd5b506004361061004c5760003560e01c80631c933a3e1461005157806346336542146101095780635ef96edf1461014357806392024888146101de575b600080fd5b6101076004803603604081101561006757600080fd5b6001600160a01b03823516919081019060408101602082013564010000000081111561009257600080fd5b8201836020820111156100a457600080fd5b803590602001918460018302840111640100000000831117156100c657600080fd5b91908080601f0160208091040260200160405190810160405280939291908181526020018383808284376000920191909152509295506101e6945050505050565b005b61012f6004803603602081101561011f57600080fd5b50356001600160a01b031661023b565b604080519115158252519081900360200190f35b6101696004803603602081101561015957600080fd5b50356001600160a01b0316610253565b6040805160208082528351818301528351919283929083019185019080838360005b838110156101a357818101518382015260200161018b565b50505050905090810190601f1680156101d05780820380516001836020036101000a031916815260200191505b509250505060405180910390f35b610107610266565b6101ef3361023b565b61022d57604051600160e51b62461bcd0281526004018080602001828103825260278152602001806106316027913960400191505060405180910390fd5b6102378282610271565b5050565b600061024d818363ffffffff61032a16565b92915050565b606061024d60008363ffffffff61035f16565b61026f3361040d565b565b6102836000838363ffffffff6104e416565b816001600160a01b03167f341e5ec549c32180adbca98effbeb9a39daa5471701e8b06b83698b5c22a6408826040518080602001828103825283818151815260200191508051906020019080838360005b838110156102ec5781810151838201526020016102d4565b50505050905090810190601f1680156103195780820380516001836020036101000a031916815260200191505b509250505060405180910390a25050565b60006001600160a01b03821661033f57600080fd5b506001600160a01b03166000908152602091909152604090205460ff1690565b6001600160a01b03811660009081526001838101602090815260409283902080548451600294821615610100026000190190911693909304601f810183900483028401830190945283835260609390918301828280156104005780601f106103d557610100808354040283529160200191610400565b820191906000526020600020905b8154815290600101906020018083116103e357829003601f168201915b5050505050905092915050565b61041e60008263ffffffff61054d16565b6001600160a01b03811660008181526001602081815260409283902083518281528154600294811615610100026000190116939093049183018290527fe36ebd8e440d660cfc55b0c59f6de37efee97d3a8599e95123250f1b1ddfb971939092918291820190849080156104d35780601f106104a8576101008083540402835291602001916104d3565b820191906000526020600020905b8154815290600101906020018083116104b657829003601f168201915b50509250505060405180910390a250565b6001600160a01b0382166104f757600080fd5b610501838361032a565b1561050b57600080fd5b6001600160a01b038216600090815260208481526040808320805460ff1916600190811790915586018252909120825161054792840190610595565b50505050565b6001600160a01b03811661056057600080fd5b61056a828261032a565b61057357600080fd5b6001600160a01b0316600090815260209190915260409020805460ff19169055565b828054600181600116156101000203166002900490600052602060002090601f016020900481019282601f106105d657805160ff1916838001178555610603565b82800160010185558215610603579182015b828111156106035782518255916020019190600101906105e8565b5061060f929150610613565b5090565b61062d91905b8082111561060f5760008155600101610619565b9056fe4f6e6c7920537570706c696572732063616e20706572666f726d207468697320616374696f6e21a165627a7a72305820decba3824fbd87c813dc6887b9dd534d72206007d89dd687ff0769befc56b0910029",
  "source": "pragma solidity ^0.5.0;\n\n// Import the library 'Roles'\nimport \"./Roles.sol\";\n\n\n// Define a contract 'SupplierRole' to manage this role - add, remove, check\ncontract SupplierRole {\n    using Roles for Roles.Role;\n\n    // Define 2 events, one for Adding, and other for Removing\n    event SupplierAdded(address indexed account, string name);\n    event SupplierRemoved(address indexed account, string name);\n\n    // Define a struct 'supliers' by inheriting from 'Roles' library, struct Role\n    Roles.Role private suppliers;\n\n    // In the constructor make the address that deploys this contract the 1st farmer\n    constructor(string memory name) public {\n        _addSupplier(msg.sender, name);\n    }\n\n    // Define a modifier that checks to see if msg.sender has the appropriate role\n    modifier onlySupplier() {\n        require(isSupplier(msg.sender), \"Only Suppliers can perform this action!\");\n        _;\n    }\n\n    function getNameSupplier(address account) public view returns (string memory) {\n        return suppliers.getName(account);\n    }\n\n    // Define a function 'isSupplier' to check this role\n    function isSupplier(address account) public view returns (bool) {\n        return suppliers.has(account);\n    }\n\n    // Define a function 'addSupplier' that adds this role\n    function addSupplier(address account, string memory name) public onlySupplier {\n        _addSupplier(account, name);\n    }\n\n    // Define a function 'renounceSupplier' to renounce this role\n    function renounceSupplier() public {\n        _removeSupplier(msg.sender);\n    }\n\n    // Define an internal function '_addSupplier' to add this role, called by 'addSupplier'\n    function _addSupplier(address account, string memory name) internal {\n        suppliers.add(account, name);\n        emit SupplierAdded(account, name);\n    }\n\n    // Define an internal function '_removeSupplier' to remove this role, called by 'removeSupplier'\n    function _removeSupplier(address account) internal {\n        suppliers.remove(account);\n        emit SupplierRemoved(account, suppliers.name[account]);\n    }\n}\n",
  "compiler": {
    "name": "solc",
    "version": "0.5.8+commit.23d335f2.Emscripten.clang"
  },
  "schemaVersion": "3.0.16",
  "updatedAt": "2020-05-14T20:07:23.918Z",
  "devdoc": {
    "methods": {}
  },
  "userdoc": {
    "methods": {}
  }
}